:020000040000fa
:080000000002040000000000f2
:020000040000fa
:100008009a0200009a0200009a0200009a02000078
:100018009a0200009a0200009a0200009a02000068
:100028009a0200009a0200009a0200009a02000058
:100038009a0200009a0200009a0200009a02000048
:020000040000fa
:020000040000fa
:100400000f8020000e7f22000e01880000000000f7
:10041000000020000000e000020032000001200087
:10042000200288000c000700a056200001002000d8
:1004300011000700000020000000e0000200320070
:10044000000002000000000064050200000000003f
:100450000040da000000fe004440a90080002000b7
:100460000000e0000300320000002000a00188002e
:100470004440a80000000600910188008000780038
:100480000000eb0015003700e280400032a0b4000d
:100490009101ba00e280400032a0b4009102ba009b
:1004a000e280400032a0b4000002eb00472bde00e7
:1004b000f507b200602ce10004003a000059eb009f
:1004c0008301e900fdff3e00040037006128e100e0
:1004d000010032000082eb00040007001101ba00a5
:1004e0000200e000e8ff3a00000006003159ba00bf
:1004f0008301e9000c0032002159ba008301e900b0
:10050000080032000400e00003003a00e2804000ee
:1005100032a0b400f5ff370011d9ba008301e90019
:10052000faff3a008100e800e180400032a0b40008
:0c053000000006000040da000000fe00a1
:020000040000fa
:10053c00486500006c6c00006f210000000000009a
:020000040000fa
:10054c000800fa00004f7800110798002207980065
:10055c00330798003e029000e00f52003600320044
:10056c009e4278000582fb006802620043a2de0016
:10057c0004427800614262000482fb004f22dd00dd
:10058c0066168000f5ff27008502630005027200e5
:10059c00641688009e4278000582fb0064026200ab
:1005ac0042a2de0004427800614262000482fb0039
:1005bc00610262004e22dd0066168000f5ff2b0002
:1005cc008502630005027200641688009e42780062
:1005dc000582fb00620262000482d10004427800b2
:1005ec00614262000482fb00610262004d22dd0068
:1005fc0066168000f5ff2d0085026300050272006f
:10060c00641688009e42780061c2620061426200fa
:10061c00614262000482fb00610262004c22dd0038
:10062c0066168000f5ff2e0085026300050272003d
:10063c0064168800380037009e4278000582fb0063
:10064c004722de0004427800614262000482fb0013
:10065c004f22dd0066168000f5ff2700850263003f
:10066c0005027200641688001e4278008482fb002a
:10067c00040420000482620046a2de0004427800da
:10068c00614262000482fb00610262004e22dd00c6
:10069c0066168000f5ff2b008502630005027200d0
:1006ac00641688001e4278008482fb00040220003d
:1006bc000482620045a2de000442780061426200be
:1006cc000482fb00610262004d22dd006616800090
:1006dc00f5ff2d0085026300050272006416880088
:1006ec009e4278000582fb007002620044a2de008c
:1006fc0004427800614262000482fb0061026200e5
:10070c004c22dd0066168000f5ff2e00850263008a
:10071c0005027200641688001e02900004427800e4
:10072c00614262000482fb00610262004722dd002c
:10073c0066168000f5f72f00850263000502720033
:10074c006416880010002000ac000700ccc2a80082
:10075c0010002000a9000700ccc2a9001000200046
:10076c00a60007002e009000a40007000080fa00ed
:10077c00000006000600fa00004f780011079800f0
:10078c00220798008001eb002e0190009e00900043
:10079c001e4078006aff0700130020002e01900015
:1007ac009e0090001e40780065ff07000080fa0054
:1007bc00000006000200fa00004f78001e4278008c
:1007cc00e20220001100200004407800e9ff07003d
:1007dc000080fa00000006000000fa00c8e2a90040
:1007ec00c8c2a900c9e2a900c9c2a900c9a2a9002e
:1007fc00c982a900c05d2000800007001300200002
:10080c00420021008000eb0030c0b3004cff070019
:10081c0013002000420620008000eb0030c0b30023
:10082c0047ff0700820220008000eb0020c3b300ca
:10083c00d0ff0700820220008000eb0080c2b300d2
:10084c00ccff0700820220008000eb0080c0b300c8
:10085c00c8ff0700826620008000eb0010c0b300c8
:10086c00c4ff0700820220008000eb0060c0b300d0
:10087c00c0ff0700820220008000eb00c0c0b30064
:10088c00bcff07000080fa00000006000400fa001c
:10089c00100798000002eb00040f780007003700e7
:1008ac001e0278009e0290000482420014427800de
:1008bc0004407800bfff07001e0fe8001e027800fe
:1008cc009e0290000482420014427800e04f5200d5
:1008dc00f3ff3a000080fa00000006000000fa0066
:1008ec00826620008000eb0010c0b300a1ff07005f
:1008fc000080fa00000006000400fa00204798006f
:10090c003147980004c8b300044f7800ae42900001
:10091c0064002000842add003e42900004c24200a4
:10092c00144798001e4290001e4f42008202200085
:10093c008000eb001e4078008eff07000080fa005c
:10094c00000006000200fa00a3ff07000002eb0003
:10095c00040f780030c6b30096ff07000002eb00ce
:10096c00040f780003003700803e200023000700ae
:10097c001e0fe800743e20009e027800848f520007
:10098c00f9ff3400d5ff0700e0292800bfff07005e
:10099c0021c0b30010c0b300d7ff07000002eb006a
:1009ac00040f780003003700803e2000130007007e
:1009bc001e0fe800743e20009e027800848f5200c7
:1009cc00f9ff3400e0292800b0ff07000002eb001b
:1009dc00040f780003003700803e2000070007005a
:1009ec001e0fe800743e20009e027800848f520097
:1009fc00f9ff34000080fa00000006000200fa0043
:100a0c00000f78000002eb00340888001e0278000a
:100a1c006e22b90004027800640888008408800003
:100a2c000440a1000450a1008408880084e0a900bf
:100a3c0011e1a8000000000025048000040820003b
:100a4c0004826200e00f5200fbff320084e0a90038
:100a5c0011e1a9000080fa00000006000200fa0073
:100a6c00000f78000002eb00040888009e0278005a
:100a7c009403200004aab90004027800140888002a
:100a8c00240880000440a0000450a0002408880022
:100a9c008460a90005e1a800000000002404800087
:100aac0068026200e00f5200fcff32008460a90073
:100abc0005e1a9000080fa00000006000000fa0021
:080acc00a0ff0700feff370048
:020000040000fa
:040ad400000000001e
:020000040000fa
:020000040001f9
:0457f800ad7b000085
:020000040000fa
:020000040001f9
:0457fc003f3f00002b
:00000001FF
