:020000040000fa
:080000000002040000000000f2
:020000040000fa
:100008009a0200009a0200009a0200009a02000078
:100018009a0200009a0200009a0200009a02000068
:100028009a0200009a0200009a0200009a02000058
:100038009a0200009a0200009a0200009a02000048
:020000040000fa
:020000040000fa
:100400000f8020000e7f22000e01880000000000f7
:10041000000020000000e000020032000001200087
:10042000200288000c00070020712000010020003d
:1004300011000700000020000000e0000200320070
:1004400000000200000000000c0702000000000095
:100450000040da000000fe004440a90080002000b7
:100460000000e0000300320000002000a00188002e
:100470004440a80000000600910188008000780038
:100480000000eb0015003700e280400032a0b4000d
:100490009101ba00e280400032a0b4009102ba009b
:1004a000e280400032a0b4000002eb00472bde00e7
:1004b000f507b200602ce10004003a000059eb009f
:1004c0008301e900fdff3e00040037006128e100e0
:1004d000010032000082eb00040007001101ba00a5
:1004e0000200e000e8ff3a00000006003159ba00bf
:1004f0008301e9000c0032002159ba008301e900b0
:10050000080032000400e00003003a00e2804000ee
:1005100032a0b400f5ff370011d9ba008301e90019
:10052000faff3a008100e800e180400032a0b40008
:10053000000006000040da000000fe000001be00de
:100540001b0007000470a70003f0a10003f8a3003c
:1005500013003a006509b1001000320009003500af
:100560006928e100020035000100280000000500b4
:1005700000004000818048008502e900fcff3a004d
:1005800000000600f88f4200050035008100d10010
:100590000080d3008502e800fcff3a00000006005e
:1005a0008000eb00000005006011b8004900370032
:1005b000c70ade00f107b200f50fb20008003200f2
:1005c000e1cf4200020032000170a00024000500cb
:1005d000810f70000100320004080500440005008e
:1005e000810f700002003a00140005008502e90046
:1005f0000000400081c04800fcff3b000170a000eb
:1006000024000500889fbe008a9fbe008c1f7800d2
:10061000850007008c00330003866c006450e10005
:10062000240032006420e100270032006150e10024
:10063000220032006120e100210032008b8542005f
:10064000eb07b1000134b800003ab80008044200da
:1006500089844a00013ab8000030b8008880400020
:1006600009014a0004003300000040008180480076
:10067000020149008b05e900c909dd008301700012
:100680000100320013002000c814de004814dd0011
:100690004709de001200b200c808de0008847000be
:1006a0003b00070001f0a1000cf0a70001f0a00042
:1006b0006e0037006120e100700032000801be00ca
:1006c0000200be00f7ff37006150e100fcff3a0076
:1006d0006a003700889fbe008a9fbe0000827000bb
:1006e0000402710004827100260032000004be0082
:1006f0000200be006011b8006b09200095022000c6
:100700000182cf000a0039000541b1000082cf000c
:10071000070039000541b1000982cf00040039000b
:100720000541b1000882cf00010039000541b10048
:1007300005425200120032000a003b008281710023
:10074000610164008100d1000080d3008984d3005e
:100750000884d3008b05e8000442e800f7ff3a0064
:10076000070037000804440089844c00000048005a
:10077000818048008b05e9000442e900f9ff3a0056
:10078000030007004f05be004f04be000000060036
:1007900081002000618055000b003d000b0020000f
:1007a00061fe2f000100e1001d0034008281710014
:1007b000610164008904d1000884d3000000e800ce
:1007c000faff3a007100200061006400030070002d
:1007d000020060000900320061044400e0844c0023
:1007e0000988a500050032008b05e8006808e100d3
:1007f00002003a008904d1000884d300f20f2000df
:100800000258e10005003d00c75ddd00f907b200b8
:100810008980750008007800000006000bf82700aa
:100820008b007800000005000004be0060ff070098
:100830000003be000405be000200be005cff07000e
:10084000844f7500000006000200be006450e10005
:10085000050036006420e100020036000968a300ac
:1008600001003a000800be000160a0004f067800b9
:100870004f05be004f04be0000000600f0ff2f0031
:08088000f1ff2700f9ff37002a
:020000040000fa
:10088800486500006c6c00006f210000000000004b
:020000040000fa
:100898000800fa00004f7800110798002207980016
:1008a800330798003e029000e00f520036003200f5
:1008b8009e4278000582fb006802620043a2de00c7
:1008c80004427800614262000482fb004f22dd008e
:1008d80066168000f5ff2700850263000502720096
:1008e800641688009e4278000582fb00640262005c
:1008f80042a2de0004427800614262000482fb00ea
:10090800610262004e22dd0066168000f5ff2b00b2
:100918008502630005027200641688009e42780012
:100928000582fb00620262000482d1000442780062
:10093800614262000482fb00610262004d22dd0018
:1009480066168000f5ff2d0085026300050272001f
:10095800641688009e42780061c2620061426200ab
:10096800614262000482fb00610262004c22dd00e9
:1009780066168000f5ff2e008502630005027200ee
:1009880064168800380037009e4278000582fb0014
:100998004722de0004427800614262000482fb00c4
:1009a8004f22dd0066168000f5ff270085026300f0
:1009b80005027200641688001e4278008482fb00db
:1009c800040420000482620046a2de00044278008b
:1009d800614262000482fb00610262004e22dd0077
:1009e80066168000f5ff2b00850263000502720081
:1009f800641688001e4278008482fb0004022000ee
:100a08000482620045a2de0004427800614262006e
:100a18000482fb00610262004d22dd006616800040
:100a2800f5ff2d0085026300050272006416880038
:100a38009e4278000582fb007002620044a2de003c
:100a480004427800614262000482fb006102620095
:100a58004c22dd0066168000f5ff2e00850263003b
:100a680005027200641688001e0290000442780095
:100a7800614262000482fb00610262004722dd00dd
:100a880066168000f5f72f008502630005027200e4
:100a98006416880010002000a2000700ccc2a8003d
:100aa800100020009f000700ccc2a9001000200001
:100ab8009c0007002e0090009a0007000080fa00b2
:100ac800000006000600fa00004f780011079800a1
:100ad800220798008001eb002e0190009e009000f4
:100ae8001e4078006aff0700130020002e019000c6
:100af8009e0090001e40780065ff07000080fa0005
:100b0800000006000200fa00004f78001e4278003c
:100b1800e20220001100200004407800e9ff0700ed
:100b28000080fa00000006000000fa00c8e2a900f0
:100b3800c8c2a900c9e2a900c9c2a900c9a2a900de
:100b4800c982a900c05d20007600070013002000bc
:100b5800420021008000eb0030c0b3004cff0700ca
:100b680013002000420620008000eb0030c0b300d4
:100b780047ff0700820220008000eb0020c3b3007b
:100b8800d0ff0700820220008000eb0080c2b30083
:100b9800ccff0700820220008000eb0080c0b30079
:100ba800c8ff0700826620008000eb0010c0b30079
:100bb800c4ff0700820220008000eb0060c0b30081
:100bc800c0ff0700820220008000eb00c0c0b30015
:100bd800bcff07000080fa00000006000400fa00cd
:100be800100798000002eb00040f78000700370098
:100bf8001e0278009e02900004824200144278008f
:100c080004407800bfff07001e0fe8001e027800ae
:100c18009e0290000482420014427800e04f520085
:100c2800f3ff3a000080fa00000006000000fa0016
:100c3800226720008000eb0010c0b300a1ff07006e
:100c48000080fa00000006000200fa00004f780059
:100c580011479800820220008000eb0040c1b300d9
:100c680098ff07000080fa00000006000200fa0062
:100c7800adff07000002eb00040f780030c6b30098
:100c8800a0ff07000002eb00040f78000300370004
:100c9800803e2000230007001e0fe800743e20005d
:100ca8009e027800848f5200f9ff3400dfff0700ae
:100cb80040442800c9ff070021c0b30010c0b3009a
:100cc800e1ff07000002eb00040f78000300370083
:100cd800803e2000130007001e0fe800743e20002d
:100ce8009e027800848f5200f9ff340040442800a7
:100cf800baff07000002eb00040f7800030037007a
:100d0800803e2000070007001e0fe800743e200008
:100d18009e027800848f5200f9ff34000080fa00a8
:100d2800000006000200fa00000f78000002eb0045
:100d3800340888001e027800050020000400be0068
:100d480017fe07000002be0052bf2d0073f52300f6
:100d58000400be0029fe07000002be000400be0019
:100d6800f4fd07000002be00040278006408880051
:100d7800840880000440a0000450a1008408880072
:100d880084e0a90011e1a80000000000250480000b
:100d98000408200004826200e00f5200fbff3200ca
:100da80084e0a90011e1a9000080fa000000060013
:100db8000200fa00000f78000002eb000408880027
:100dc8009e0278009403200004aab9000402780067
:100dd80014088800240880000440a0000450a000e3
:100de800240888008460a90005e1a800000000002c
:100df8002404800068026200e00f5200fcff320009
:100e08008460a90005e1a9000080fa00000006003e
:0c0e18000000fa0095ff0700feff370005
:020000040000fa
:040e240000000000ca
:020000040000fa
:020000040001f9
:0457f800ad7b000085
:020000040000fa
:020000040001f9
:0457fc003f3f00002b
:00000001FF
